:020000040000fa
:080000000002040000000000f2
:020000040000fa
:100008009a0200009a0200009a0200009a02000078
:100018009a0200009a0200009a0200009a02000068
:100028009a0200009a0200009a0200009a02000058
:100038009a0200009a0200009a0200009a02000048
:020000040000fa
:020000040000fa
:100400000f8020000eff20000e0188000000000079
:10041000000020000000e000020032000001200087
:10042000200288000c000700408a20000100200004
:1004300011000700000020000000e0000200320070
:1004400000000200000000008a0802000000000016
:100450000040da000000fe004440a9000002200035
:100460000000e0000300320000002000a00188002e
:100470004440a80000000600910188008000780038
:100480000000eb0015003700e280400032a0b4000d
:100490009101ba00e280400032a0b4009102ba009b
:1004a000e280400032a0b4000002eb00472bde00e7
:1004b000f507b200602ce10004003a000059eb009f
:1004c0008301e900fdff3e00040037006128e100e0
:1004d000010032000082eb00040007001101ba00a5
:1004e0000200e000e8ff3a00000006003159ba00bf
:1004f0008301e9000c0032002159ba008301e900b0
:10050000080032000400e00003003a00e2804000ee
:1005100032a0b400f5ff370011d9ba008301e90019
:10052000faff3a008100e800e180400032a0b40008
:10053000000006000040da000000fe006022b80063
:10054000060220000000d0008180d2000482d20088
:100550008582d2000000a0000202520083825a006d
:10056000030031000202420083824a000000a10021
:0c0570000603e900f3ff3a00000006005b
:020000040000fa
:10057c00484500004c4c00004f2000004c4100004e
:10058c00424f000054450000430d00000a000000db
:10059c003132000033410000343500003642000097
:1005ac0037380000394300002a3000002344000093
:020000040000fa
:1005bc000200fa00004f78001e4278008482fb0093
:1005cc00040f200004826200a4168800a416800088
:1005dc000410a000a4168800a41680000430a0000b
:1005ec00a416880000c4290001002000b8020700ee
:1005fc00a516800074ff2f0004826200a4168800e8
:10060c00a5168000d4ff2f0004826200a416880077
:10061c0000c4290001002000ad0207009e427800b2
:10062c000582fb004422dd0084027800f40f2000d8
:10063c0004826200a4168800a41680000410a00096
:10064c00a4168800a41680000430a000a41688000c
:10065c0000c42900010020009d020700a51680009f
:10066c0074ff2f0004826200a4168800a516800077
:10067c00d4ff2f0004826200a416880000c4290055
:10068c0001002000920207000080fa000000060022
:10069c000200fa00004f78001e4278008482fb00b2
:1006ac00040f200004826200a4168800a4168000a7
:1006bc000430a000a416880000c42900010020000a
:1006cc0083020700a516800074ff2f0004826200cd
:1006dc00a416880000c42900010020007c02070039
:1006ec009e4278000582fb004422dd0084027800e3
:1006fc00f40f200004826200a4168800a416800067
:10070c000430a000a416880000c4290001002000b9
:10071c006f020700a516800074ff2f000482620090
:10072c00a416880000c429000100200068020700fc
:10073c000080fa00000006000000fa00007c220095
:10074c0091002000620207000002eb00a416880052
:10075c000002eb00a41688000002eb00841688004f
:10076c000002eb008416880004032000a416880005
:10077c00a41680000430a000a416880000c4290030
:10078c000100200052020700a516800074ff2f0004
:10079c0004826200a416880000c429000100200015
:1007ac004b02070004032000a4168800a416800046
:1007bc000430a000a416880000c429000100200009
:1007cc0043020700a516800074ff2f00048262000c
:1007dc00a416880000c42900010020003c02070078
:1007ec0004022000a4168800a41680000430a00087
:1007fc00a416880000c42900010020003402070060
:10080c00a516800074ff2f0004826200a4168800d5
:10081c0000c42900010020002d02070080c2b30093
:10082c009bff0700c0c0b30099ff07000080fa00cf
:10083c00000006000400fa00881f7800000f780002
:10084c00214798000044eb000044eb000600370001
:10085c000882fb001e02420014427800044078001b
:10086c0053ff07000844e8002e429000844f5400c8
:10087c00f7ff39004f0478000080fa0000000600f2
:10088c000200fa00881f7800004f7800114798008a
:10089c001e4290000482fb00cfa2de003600200036
:1008ac0007002000860f5200878f5a0010003e0070
:1008bc000460010003003700040037000600370015
:1008cc00080037001e4478000b00370004c4b30046
:1008dc001e444200080037001e4278007444420057
:1008ec000500370044c5b3001e4442000200370027
:1008fc001e4478000000000004c8b30004427400d9
:10090c000440780062ff07004f0478000080fa0072
:10091c00000006000600fa001007980041479800f6
:10092c000042eb00044f78000042eb0014479800a3
:10093c004e4290000482fb004322dd00844278008a
:10094c0004c4b30004c27200144798000042eb00c8
:10095c00044f78000e0037009e4278000582fb00a1
:10096c009e029000048242001442780004407800f9
:10097c000fff07001e4290009e4290008542e80047
:10098c00154798000440780041ff07001e4fe8000f
:10099c001e427800e74f5200efff36000080fa004d
:1009ac00000006000600fa00200798000042eb0049
:1009bc00044f78000042eb00144798000042eb0013
:1009cc00244798000042eb0034479800040037009d
:1009dc002e029000843eb100240798001e4fe800c0
:1009ec00ae029000743e2000848f5200f8ff3e004f
:1009fc00060037002e0290004406b1002407980030
:100a0c001e4290000442e80014479800ae02900089
:100a1c0034062000848f5200f6ff3e00060037009b
:100a2c002e0290006a025200240798002e42900079
:100a3c000442e800244798002e029000e90f52006f
:100a4c00f7ff3e002e029000344798001e427800bb
:100a5c00e04f52001100320005c3b3001ec2420029
:100a6c0004407800d2fe07001e4290000443b00000
:100a7c0004407800cefe07002e4290000443b000e4
:100a8c0004407800cafe07003e4290000443b000c8
:100a9c0004407800c6fe0700200037001e4290007c
:100aac00e04f52000d0032001e4290000443b00093
:100abc0004407800befe07002e4290000443b000b4
:100acc0004407800bafe07003e4290000443b00098
:100adc0004407800b6fe0700100037002e4290004c
:100aec00e04f5200090032002e4290000443b00047
:100afc0004407800aefe07003e4290000443b00074
:100b0c0004407800aafe0700040037003e42900023
:100b1c000443b00004407800a5fe07000080fa00f2
:100b2c00000006000000fa0034182000441688006b
:100b3c004516800034fc2f000482620044168800a5
:100b4c006880a80068a0a8006ac0a8006ae0a80095
:100b5c00040f2000641688006516800004ff2f0027
:100b6c0004826200641688000080fa00000006000f
:100b7c001400fa0063024700e52c28000f0009005e
:100b8c00355a78000002eb00040f78000042eb00ad
:100b9c00244798000002eb00040f780099003700fe
:100bac001e027800e00f520023003a00b41b200014
:100bbc006416880000fa20000100200044010700a0
:100bcc00020037003e4290002447980054168000e3
:100bdc0061026200e00f5200faff3200020037009f
:100bec00ce429000254798005416800062026200a5
:100bfc00e00f5200faff3200020037005e42900014
:100c0c0024479800551680000408200004826200d6
:100c1c00e00f5200f9ff320002003700ee42900064
:100c2c0025479800551680000410200004826200ad
:100c3c00e00f5200f9ff32001e027800e10f520063
:100c4c0023003a00741b20006416880000fa200070
:100c5c00010020001e010700020037007e429000b8
:100c6c00244798005416800061026200e00f520085
:100c7c00faff3200020037008e4a90002547980098
:100c8c005416800062026200e00f5200faff32003c
:100c9c00020037001e4a9000244798005516800029
:100cac000408200004826200e00f5200f9ff3200b9
:100cbc0002003700ae4a9000254798005516800078
:100ccc000410200004826200e00f5200f9ff320091
:100cdc001e027800e20f520023003a00f41a2000a2
:100cec006416880000fa200001002000f8000700bc
:100cfc00020037003e4a90002447980054168000aa
:100d0c0061026200e00f5200faff3200020037006d
:100d1c00ce4a90002547980054168000620262006b
:100d2c00e00f5200faff3200020037005e4a9000da
:100d3c0024479800551680000408200004826200a5
:100d4c00e00f5200f9ff320002003700ee4a90002b
:100d5c00254798005516800004102000048262007c
:100d6c00e00f5200f9ff32001e027800e30f520030
:100d7c0023003a00f41920006416880000fa2000c1
:100d8c0001002000d2000700020037007e4a9000cc
:100d9c00244798005416800061026200e00f520054
:100dac00faff3200020037008e529000254798005f
:100dbc005416800062026200e00f5200faff32000b
:100dcc00020037001e5290002447980055168000f0
:100ddc000408200004826200e00f5200f9ff320088
:100dec0002003700ae52900025479800551680003f
:100dfc000410200004826200e00f5200f9ff320060
:100e0c001e0fe8001e027800e30f520064ff34004e
:100e1c002e429000044078000080fa00000006008a
:100e2c000400fa00008fbe00a536800004fe2f00df
:100e3c00048262003400b300a4368800253580009b
:100e4c0004fe2f00048262005401b3002435880094
:100e5c0021e2a80021a2a9002182a9002162a800f8
:100e6c00041180000480a1000490a10004118800ea
:100e7c0020e2a80020c2a9002082a9002062a900bb
:100e8c00041180000410a1000420a10004118800aa
:100e9c002002a90023c2a9002362a9002342a800b2
:100eac0022a2a9001e03be00443add00cc32de00b3
:100ebc00850272004432dd000401be0000a0250052
:100ecc00212620009afd07000002be0004027800d3
:100edc000402e900441188000080fa0000000600ba
:100eec000200fa00004f78009e4278000582fb0059
:100efc00241188000000000015118000041020004f
:100f0c0004826200e00f5200fbff32000080fa0006
:100f1c00000006000200fa00000f78000500370000
:100f2c001e027800144278001e0fe800044078007e
:100f3c00ebff07001e02780014427800e04f5200cd
:100f4c00f7ff3a000080fa00000006000000fa00eb
:100f5c0065198000e4ff2f00048262006419880088
:100f6c000002eb00041988002143a800041980003a
:100f7c000480a1000490a1000419880004198000c9
:100f8c000450a1000460a1000470a10004198800a1
:100f9c002343a9001419800004d0a10004e0a1008f
:100fac0004f0a1001419880025e3a900251980007c
:100fbc00f40f2e00048262002419880054c0b30080
:100fcc000400780024e3b7002043a90085a0a90001
:100fdc0095a0a9004519800004fe2f000482620030
:100fec004419880021e3a8000080fa0000000600e4
:100ffc000000fa002023a800000000000000000000
:10100c002023a90000000000041980006102620086
:10101c00e00f5200fcff320004188000040078003e
:10102c000080fa00000006000000fa00f4ff200027
:10103c0064198800b4022000343a8800253a8000f4
:10104c0004fe2f0004826200243a8800243a8000b7
:10105c000460a1000470a100243a8800160020004e
:10106c0084072000a509200037742000844b7800e9
:10107c00854b7800864b7800160020006404200015
:10108c007505200027742000844b7800854b780070
:10109c00864b780000000000153a80000400270001
:1010ac008482620004002100848f5200faff3a000f
:1010bc0000000000153a8000040220000482620047
:1010cc00e00f5200fbff32000080fa000000060027
:020000040000fa
:1010dc00f03fb1000180b10006003500ee030900bd
:1010ec0000000000403fb1000180b100fbff3d005b
:1010fc001000b000203fb000020035000080090055
:08110c000000000000000600d5
:020000040000fa
:101114000400fa00000f780011079800c4ff0700cc
:1011240000582200010020003fff0700e02b2800a8
:101134007aff070000902000d1032000e6ff07009b
:04114400faff370077
:020000040000fa
:0411480000000000a3
:020000040000fa
:0200000401f009
:04000c00f8ff0000f9
:020000040000fa
:0200000401f009
:040010007bff000072
:020000040000fa
:0200000401f009
:04001c00dfff000002
:00000001FF
